:100000003BC05FC05EC05DC05CC05BC05AC059C031
:1000100058C0C6C656C033C70DC753C052C051C022
:1000200050C04FC04EC00000000037003400310007
:100030000000000038003500320004040404040409
:100040000404020202020202030303030303010287
:100050000408102040800102040810200102040856
:100060001020000000000000000000030406000053
:10007000000000000000710711241FBECFE5D4E08E
:10008000DEBFCDBF21E0AEE8B0E001C01D92A43CD0
:10009000B207E1F710E0A0E6B0E0E4E4F9E102C065
:1000A00005900D92AE38B107D9F710E0CCE3D0E05F
:1000B00003C02197FE0141DACB33D107D1F772D7C4
:1000C0003FCC9ECF90E0FC01EE59FF4F3491FC01F4
:1000D000E25BFF4F2491FC01E65CFF4FE491EE23CD
:1000E00031F1332381F0343039F0363049F0333098
:1000F00051F48FB58F7702C08FB58F7D8FBD03C050
:1001000085B58F7D85BDF0E0EE0FFF1FE05DFF4FF1
:10011000A591B4919FB7F894611105C08C91E22F1D
:10012000E095E82302C0EC91E22BEC939FBF089589
:10013000CF93DF9390E0FC01E25BFF4F2491FC0141
:10014000E65CFF4F8491882361F190E0880F991F4E
:10015000FC01EA5DFF4FC591D491FC01E05DFF4FCA
:10016000A591B491611109C09FB7F8948881209539
:1001700082238883EC912E230BC0623061F49FB7F9
:10018000F8948881322F309583238883EC912E2B2D
:100190002C939FBF06C08FB7F894E8812E2B28833D
:1001A0008FBFDF91CF910895FF920F931F93CF934D
:1001B000DF93EC01162FF72E80E094E09B838A8377
:1001C00080E090E0A0E8B0E489879A87AB87BC879D
:1001D00001E00D871E8A1F8A188E198E1A8E60E024
:1001E000812FA6DF60E0812F6DDF1883F9820887F9
:1001F00080E090E0A0E8BFE38C839D83AE83BF8363
:10020000DF91CF911F910F91FF9008953FB7F89420
:1002100080919F009091A000A091A100B091A200B8
:1002200022B708B600FE05C02F3F19F00196A11DA8
:10023000B11D3FBFBA2FA92F982F8827820F911D7C
:10024000A11DB11DBC01CD0143E0660F771F881FC2
:10025000991F4A95D1F708950895CF92DF92EF92B2
:10026000FF920F931F93CF93DF936C017A018B0161
:10027000C0E0D0E0CE15DF0581F0D8016D918D0191
:10028000D601ED91FC910190F081E02DC601099518
:10029000892B11F02196EECF7E01C701DF91CF911E
:1002A0001F910F91FF90EF90DF90CF90089580E025
:1002B00090E00895FC01538D448D252F30E0842F6C
:1002C00090E0821B930B541710F0CF96089501977E
:1002D0000895FC01918D828D981761F0828DDF0168
:1002E000A80FB11D5D968C91928D9F5F9F73928F29
:1002F00090E008958FEF9FEF08952FB7F8948091C5
:10030000A3009091A400A091A500B091A6002FBFDA
:100310008093AF009093B000A093B100B093B2006F
:1003200087EA90E0D6DF97FF26C02FB7F894809138
:10033000A3009091A400A091A500B091A6002FBFAA
:100340004091AF005091B0006091B1007091B20047
:10035000841B950BA60BB70B4091AB005091AC00E2
:100360006091AD007091AE0084179507A607B7079E
:10037000B8F28FEF9FEF0895FC01918D828D981751
:1003800031F0828DE80FF11D858D90E008958FEF9B
:100390009FEF0895FC01918D228D892F90E0805C64
:1003A0009F4F821B91098F739927089587EA90E0E8
:1003B000F1DF21E0892B09F420E0822F0895FC0170
:1003C000848DDF01A80FB11DA35ABF4F2C91848DDE
:1003D00090E001968F739927848FA689B7892C9313
:1003E000A089B1898C9182748C93938D848D98139C
:1003F00006C00288F389E02D80818F7D8083089577
:10040000EF92FF920F931F93CF93DF93EC0181E064
:10041000888F9B8D8C8D981305C0E889F989808120
:1004200085FD25C0F62E0B8D10E00F5F1F4F0F735B
:100430001127E02E8C8DE8120BC00FB607FCFACF07
:10044000E889F989808185FFF5CFCE01B8DFF2CF49
:100450008B8DFE01E80FF11DE35AFF4FF0829FB72D
:10046000F8940B8FEA89FB898081806209C09FB76D
:10047000F894EE89FF896083E889F9898081827424
:1004800080839FBF81E090E0DF91CF911F910F911A
:10049000FF90EF900895CF93DF93EC01888D882330
:1004A000C1F0EA89FB89808185FD05C0A889B989E9
:1004B0008C9186FD0EC00FB607FCF5CF808185FFBD
:1004C000F2CFA889B9898C9185FFEDCFCE0177DF76
:1004D000E8CFDF91CF91089580E090E0892B19F06B
:1004E00065DF81118DCD0895FC018081882379F12C
:1004F0002FB7F8948091A3009091A400A091A5003B
:10050000B091A6002FBF4181528163817481841B09
:10051000950BA60BB70B45815681678170858417B3
:100520009507A607B70798F02FB7F8948091A30016
:100530009091A400A091A500B091A6002FBF818347
:100540009283A383B4830184F285E02D09940895F6
:100550002F923F924F925F926F927F928F929F92D3
:10056000AF92BF92CF92DF92EF92FF921F93CF9301
:10057000DF93CDB7DEB728970FB6F894DEBF0FBE76
:10058000CDBF98878F83DC018C918E3008F08E5020
:100590008770806487B9369A3699FECFE4B085B10A
:1005A0006E2D70E07B01F82AEF81F885F48EE38EE2
:1005B000258D368D3A83298330A3278F108511230B
:1005C00009F448C08585882309F444C0B7010F2C7D
:1005D000000C880B990B62D52B013C01AF81B885CB
:1005E00019968D909D90AD90BC901C97A50194019B
:1005F0004FD587FF0CC0B701660F771F072E000C81
:10060000880B990B4BD5A501940195D621C0EF819C
:10061000F885C280D380B6010D2C000C880B990B95
:100620003DD5A501940187D69B01AC01C301B20160
:1006300080D718167CF4B701660F771F6C197D09F7
:10064000072E000C880B990B29D5A501940174D6AF
:100650003FD77B01AF81B8851E964D905D906D9020
:100660007C905197B701FF0C880B990B17D5A3010C
:10067000920161D64B015C0120E030E0A90159D71D
:1006800018161CF4C501B40103C0C501B40190588B
:1006900024D71B01EF81F885C688D788E08CF18CC0
:1006A000A7019601C501B40146D62DEC3CEC4CECFB
:1006B0005EE353D5A70196013FD66B017C01AF8164
:1006C000B88556966D937D938D939C93599711237E
:1006D00071F120E030E0A9012CD7181624F0F7FAC8
:1006E000F094F7F8F094AF81B88519968D919D91AB
:1006F0000D90BC91A02D8B839C83AD83BE8311E0B4
:10070000A7019601BC01CD0114D718160CF010E01A
:10071000EF81F885128FA70196016B817C818D8115
:100720009E8107D718161CF4C301B20177C0B1012E
:1007300080E090E0B1D4AF81B88514962D913D91C1
:100740004D915C91179709D520E030E040E85FE3D8
:10075000F3D59B01AC0160E070E080E89FE350D6E8
:100760009B01AC0160E070E080E89FE3E4D59B0171
:10077000AC01E2D5D62EE72EF82E192F20E030E07E
:1007800040E85FE3D6D6181614F08F2D04C0D12CA4
:10079000E12C80E81FE32D2D3E2D482F512FC50160
:1007A000B401DBD4A3019201C7D56B017C01EF81B9
:1007B000F88566877787808B918B20E030E0A901F0
:1007C00067D487FF09C0AF81B8851E961D921D9220
:1007D0001D921C9251971CC0EF81F8856281738134
:1007E00061507109072E000C880B990B57D44B01EF
:1007F0005C019B01AC01C701B6019BD6181644F4FD
:10080000AF81B8851E968D929D92AD92BC92519704
:10081000EF81F885668577858089918959D6AF8182
:10082000B8855E967C936E935D9781E0E981FA814D
:10083000E617F70709F480E0AF81B88591968C93AD
:1008400028960FB6F894DEBF0FBECDBFDF91CF91D3
:100850001F91FF90EF90DF90CF90BF90AF909F904F
:100860008F907F906F905F904F903F902F90089562
:1008700080919C0090919D00892B51F461E089E06A
:1008800021DC81E090E090939D0080939C0008958E
:1008900060E089E017DC10929D0010929C000895A2
:1008A000009761F0FC0101900020E9F73197AF015A
:1008B000481B590BBC0187EA90E0CFCC80E090E068
:1008C000089521D80F931F93CF93DF93EC01888174
:1008D0009981009729F02A813B812617370780F4F8
:1008E0008B016F5F7F4F50D7009761F099838883AA
:1008F0001B830A832C813D81232B11F4FC01108280
:1009000081E001C080E0DF91CF911F910F910895A8
:100910008F929F92AF92BF92CF92DF92EF92FF920F
:100920000F931F93CF93DF93CDB7DEB72E970FB6FC
:10093000F894DEBF0FBECDBF18861F821A861986B7
:100940001C861B8660E070E0CE010796BBDF2F811E
:10095000388581110CC02115310511F0C9018BD6E4
:1009600018861F821C861B861A86198606C01C865E
:100970001B866FE770E0C901DCD787EA90E00ADDEB
:10098000892B09F45AC01A8219821C821B821E828A
:100990001D8260E070E0CE01019694DF29813A81EA
:1009A00081110CC02115310511F0C90164D61A82DC
:1009B00019821E821D821C821B8206C01E821D821D
:1009C0006FE770E0C901B5D798DC97FD19C08D8736
:1009D0001E860D811E810F5F1F4FB801CE0101964B
:1009E00071DF882389F329813A818D819E81BE013F
:1009F000635F7F4F820F931F9CD71E830D83E4CFCD
:100A00008F819885009739F069817A816115710528
:100A100009F0B8C130D689819A8198878F838B81FC
:100A20009C819A8789878D819E819C878B871A827A
:100A3000198289819A811FD6A0CFCF80D884C11412
:100A4000D104D1F10B851C8501151105A9F17601A1
:100A500057012FEFA21AB20AF7018081082E000C6D
:100A6000990B0ED3892B11F07501F2CF01501109AA
:100A70000C0D1D1DF8018081082E000C990B00D370
:100A8000892B31F00E151F0518F001501109F2CF16
:100A9000A8014F5F5F4F4E195F095C874B87CE14EB
:100AA000DF0418F4B701C60132D7EF81F8858B85D2
:100AB0009C85E80FF91F10821A8219821C821B8202
:100AC0001E821D820F81188501151105D9F0EB8456
:100AD000FC84B701CE010196F5DE29813A818111AE
:100AE0000CC02115310511F0C901C5D51A82198232
:100AF0001E821D821C821B8205C0FE82ED82B8010F
:100B0000C90117D78D819E81892B09F449C00981BC
:100B10001A8168E770E0C80103D7892BC1F561E04D
:100B200088E0D0DA61E087E0CDDA61E086E0CADA19
:100B30006DDB6B017C0188EE882E83E0982EA12C62
:100B4000B12C64DBDC01CB018C199D09AE09BF0916
:100B5000883E9340A105B105A0F3F1E08F1A9108FA
:100B6000A108B10828EEC20E23E0D21EE11CF11C40
:100B700081149104A104B10421F760E088E0A2DAB5
:100B800060E087E09FDA60E086E09CDAE2C06AE736
:100B900070E0C801C5D6892B19F48CE790E0D8C065
:100BA0008EE991E0D5DC8CE791E0D2DC8AE591E03A
:100BB000CFDC4091BB015091BC0120919901309153
:100BC0009A01809177019091780141155105A1F426
:100BD0002115310589F0009779F080919A00909164
:100BE0009B00019690939B0080939A0006970CF4CB
:100BF000B0C08EE790E0ACC010929B0010929A00BB
:100C000041155105A1F02115310589F4009779F0BE
:100C1000809198009091990001969093990080930B
:100C2000980006970CF495C080E890E091C010926F
:100C300099001092980041155105A1F02115310538
:100C400089F0009779F48091960090919700019631
:100C5000909397008093960006970CF47AC082E8F0
:100C600090E076C0109297001092960041155105C1
:100C7000A1F42115310589F4009779F08091940051
:100C8000909195000196909395008093940006971B
:100C90000CF45FC084E890E05BC010929500109265
:100CA000940041155105A1F02115310589F40097F3
:100CB00079F4809192009091930001969093930023
:100CC0008093920006970CF444C086E890E040C000
:100CD00010929300109292004115510599F421153C
:100CE000310581F0009771F480919000909191000E
:100CF00001969093910080939000069754F188E8B4
:100D000090E026C01092910010929000411551057C
:100D100099F42115310581F4009771F480918E00CA
:100D200090918F00019690938F0080938E0006978C
:100D300084F08AE890E00CC010928F0010928E0030
:100D4000452B39F0232B29F0892B19F08CE890E002
:100D5000A7DD89819A818FD48F8198858CD42E9636
:100D60000FB6F894DEBF0FBECDBFDF91CF911F91BC
:100D70000F91FF90EF90DF90CF90BF90AF909F903A
:100D80008F90089549855A852D813E8142175307DA
:100D900008F440CECED58D819E819C878B8749CE2D
:100DA0001F920F920FB60F9211242F933F938F93A0
:100DB0009F93AF93BF938091A3009091A400A091C3
:100DC000A500B091A60030919E0026E0230F2D379C
:100DD00020F40296A11DB11D05C029E8230F03963A
:100DE000A11DB11D20939E008093A3009093A400A9
:100DF000A093A500B093A60080919F009091A000C1
:100E0000A091A100B091A2000196A11DB11D8093F7
:100E10009F009093A000A093A100B093A200BF9167
:100E2000AF919F918F913F912F910F900FBE0F9097
:100E30001F9018951F920F920FB60F9211242F93A7
:100E40003F934F935F936F937F938F939F93AF9352
:100E5000BF93EF93FF9387EA90E0B1DAFF91EF91B0
:100E6000BF91AF919F918F917F916F915F914F91C2
:100E70003F912F910F900FBE0F901F9018951F92CA
:100E80000F920FB60F9211242F938F939F93EF938E
:100E9000FF93E091B700F091B8008081E091BD0030
:100EA000F091BE0082FD12C090818091C0008F5FE2
:100EB0008F732091C100821751F0E091C000F0E0E3
:100EC000E955FF4F958F8093C00001C08081FF914D
:100ED000EF919F918F912F910F900FBE0F901F90C8
:100EE0001895E7EAF0E01382128288EE93E0A0E022
:100EF000B0E084839583A683B7838AE690E09183EC
:100F0000808380E490E09587848729E230E037870A
:100F100026872BE230E0318B208B2AE230E0338BC6
:100F2000228B958B848B8CE290E0978B868B118E35
:100F3000128E138E148E6EE070E08EE991E034D93B
:100F40006FE070E08CE791E02FD960E170E08AE516
:100F500091E02AD9EFE4F1E081E0808311821282EE
:100F60001382148242E350E060E070E045835683D0
:100F70006783708728E834E032872187E4E4F1E072
:100F80008083118212821382148284EF91E0A0E0A8
:100F9000B0E085839683A783B08788E394E0928747
:100FA00081870895789483B7826083BF83B7816017
:100FB00083BF89B7816089BF1EBC8EB582608EBD3C
:100FC0008EB581608EBD8FB581608FBD85B5846023
:100FD00085BD85B5806485BD329A319A3098379A3F
:100FE0001AB8E091B700F091B80082E08083E091F8
:100FF000B300F091B4001082E091B500F091B6001A
:1010000087E680831092BF00E091BB00F091BC00A6
:1010100086E88083E091B900F091BA008081806118
:101020008083E091B900F091BA008081886080836C
:10103000E091B900F091BA00808180688083E091EE
:10104000B900F091BA0080818F7D808361E088E0F3
:101050006FD861E087E06CD861E086E069D861E034
:1010600085E066D861E084E063D861E089E060D81B
:101070008FE491E039DA84E491E036DA2DDAF8CFC2
:101080009111CEC0803219F089508550D0F7089563
:1010900040D008F481E00895E89409C097FB3EF43D
:1010A00090958095709561957F4F8F4F9F4F9923B5
:1010B000A9F0F92F96E9BB279395F6958795779533
:1010C0006795B795F111F8CFFAF4BB0F11F460FFF3
:1010D0001BC06F5F7F4F8F4F9F4F16C0882311F04B
:1010E00096E911C0772321F09EE8872F762F05C05F
:1010F000662371F096E8862F70E060E02AF09A95FA
:10110000660F771F881FDAF7880F9695879597F9EE
:101110000895990F0008550FAA0BE0E8FEEF161688
:101120001706E807F907C0F012161306E407F507DB
:1011300098F0621B730B840B950B39F40A2661F04F
:10114000232B242B252B21F408950A2609F4A140F2
:10115000A6958FEF811D811D08950BD07BC06CD0AB
:1011600028F071D018F0952309F05DC062C01124F9
:10117000A5C081D0A0F3959FD1F3950F50E0551FE6
:10118000629FF001729FBB27F00DB11D639FAA27DC
:10119000F00DB11DAA1F649F6627B00DA11D661F2B
:1011A000829F2227B00DA11D621F739FB00DA11D4C
:1011B000621F839FA00D611D221F749F3327A00D06
:1011C000611D231F849F600D211D822F762F6A2FA2
:1011D00011249F5750408AF0E1F088234AF0EE0F27
:1011E000FF1FBB1F661F771F881F91505040A9F734
:1011F0009E3F510570F017C061C05F3FECF3983E11
:10120000DCF3869577956795B795F795E7959F5F9A
:10121000C1F7FE2B880F911D9695879597F9089534
:1012200099278827089597F99F6780E870E060E024
:1012300008959FEF80EC089500240A94161617066F
:1012400018060906089500240A94121613061406B7
:1012500005060895092E0394000C11F4882352F01A
:10126000BB0F40F4BF2B11F460FF04C06F5F7F4FD2
:101270008F4F9F4F089557FD9058440F551F59F0B9
:101280005F3F71F04795880F97FB991F61F09F3F73
:1012900079F087950895121613061406551FF2CF9C
:1012A0004695F1DF08C0161617061806991FF1CFEC
:1012B00086957105610508940895E894BB27662713
:1012C0007727CB0197F908952F923F924F925F9223
:1012D0006F927F928F929F92AF92BF92CF92DF9246
:1012E000EF92FF920F931F93CF93DF93CDB7DEB7AB
:1012F000CA1BDB0B0FB6F894DEBF0FBECDBF09943F
:101300002A88398848885F846E847D848C849B8495
:10131000AA84B984C884DF80EE80FD800C811B81A3
:10132000AA81B981CE0FD11D0FB6F894DEBF0FBED2
:10133000CDBFED0108955058BB27AA270ED08ACF04
:101340007BDF30F080DF20F031F49F3F11F41EF49A
:1013500070CF0EF4E095E7FB66CFE92F8CDF80F3CA
:10136000BA17620773078407950718F071F49EF5A2
:10137000A4CF0EF4E0950B2EBA2FA02D0B01B901CE
:1013800090010C01CA01A0011124FF27591B99F0FB
:10139000593F50F4503E68F11A16F040A22F232F07
:1013A000342F4427585FF3CF469537952795A79557
:1013B000F0405395C9F77EF41F16BA0B620B730BFE
:1013C000840BBAF09150A1F0FF0FBB1F661F771F6F
:1013D000881FC2F70EC0BA0F621F731F841F48F424
:1013E000879577956795B795F7959E3F08F0B3CFAA
:1013F0009395880F08F09927EE0F97958795089594
:101400000CD028CF20DF40F017DF30F021F45F3F11
:1014100019F009CF511152CF0CCF2DDF98F399233A
:10142000C9F35523B1F3951B550BBB27AA276217A8
:101430007307840738F09F5F5F4F220F331F441FED
:10144000AA1FA9F333D00E2E3AF0E0E830D0915025
:101450005040E695001CCAF729D0FE2F27D0660F12
:10146000771F881FBB1F261737074807AB07B0E851
:1014700009F0BB0B802DBF01FF2793585F4F2AF067
:101480009E3F510568F0CFCE19CF5F3FECF3983EF9
:10149000DCF3869577956795B795F7959F5FC9F7C4
:1014A000880F911D9695879597F90895E1E0660F4D
:1014B000771F881FBB1F621773078407BA0720F0C6
:1014C000621B730B840BBA0BEE1F88F7E09508952F
:1014D00004D06894B111F2CE0895D5DE88F09F57FC
:1014E00090F0B92F9927B751A0F0D1F0660F771F70
:1014F000881F991F1AF0BA95C9F712C0B13081F050
:10150000DCDEB1E00895D9CE672F782F8827B85F49
:1015100039F0B93FCCF3869577956795B395D9F7B0
:101520003EF490958095709561957F4F8F4F9F4FBA
:101530000895EFDD08F48FEF0895EE0FFF1F05907B
:10154000F491E02D09940F931F93CF93DF93823092
:10155000910510F482E090E0E091C201F091C301A6
:1015600020E030E0A0E0B0E0309719F140815181F7
:101570000281138148175907C8F08417950769F449
:10158000109731F012960C93129713961C9327C064
:101590000093C2011093C30122C02115310519F037
:1015A0004217530718F49A01BD01EF01DF01F8015A
:1015B000DBCF21153105F9F0281B390B243031051B
:1015C00080F48A819B816115710521F0FB01938371
:1015D000828304C09093C3018093C201FE013296BE
:1015E00044C0FE01E20FF31F819391932250310911
:1015F000398328833AC02091C0013091C101232B47
:1016000041F420916200309163003093C101209336
:10161000C00120916000309161002115310541F435
:101620002DB73EB74091640050916500241B350BE7
:10163000E091C001F091C101E217F307A0F42E1B65
:101640003F0B2817390778F0AC014E5F5F4F241726
:10165000350748F04E0F5F1F5093C1014093C00102
:101660008193919302C0E0E0F0E0CF01DF91CF9150
:101670001F910F910895CF93DF93009709F481C0D4
:10168000FC01329713821282A091C201B091C30172
:10169000109781F420813181820F931F2091C00126
:1016A0003091C1012817390751F5F093C101E0933A
:1016B000C00167C0ED0120E030E0CE17DF0740F445
:1016C0004A815B819E0141155105F1F0EA01F5CF98
:1016D000D383C28340815181840F951FC817D907D6
:1016E00059F488819981840F951F02969183808394
:1016F0008A819B81938382832115310529F4F0939C
:10170000C301E093C2013DC0E901FB83EA83499133
:101710005991C40FD51FEC17FD0761F480819181A9
:10172000840F951F0296E9019983888382819381B2
:101730009B838A83E0E0F0E012968D919C91139751
:10174000009719F0FD01DC01F7CF8D919C91119765
:101750009D012E5F3F4F820F931F2091C00130915A
:10176000C1012817390769F4309729F41092C30191
:101770001092C20102C013821282B093C101A093E1
:10178000C001DF91CF910895A0E0B0E0E9ECFBE06B
:101790009FCDEC01009719F4CB01D5DEB0C0FC0160
:1017A000E60FF71F9C0122503109E217F30708F4F6
:1017B000A4C0D9010D911C91119706171707A8F025
:1017C0000530110508F497C0C801049786179707DC
:1017D00008F491C002501109061B170B01931193D5
:1017E0006D937C93CF0147DF86C05B01A01AB10ADD
:1017F0004C01800E911EA091C201B091C301612CD9
:10180000712CE12CF12C109709F446C08D919C911C
:101810001197A815B905B1F56C0142E0C40ED11CB1
:10182000CA14DB0478F14C018A189B08640142E079
:10183000C40ED11C1296BC9012971396AC91B5E0D1
:10184000CB16D10440F0B282A38391828082D90169
:101850006D937C9309C00E5F1F4F800F911FF9019C
:1018600091838083EB2DFA2FE114F10431F0D7013D
:101870001396FC93EE9312973EC0F093C301E0934E
:10188000C20139C06816790608F43C017D01129640
:101890000D90BC91A02DB7CF8091C0019091C10156
:1018A00088169906E1F466167706C8F48091600000
:1018B00090916100009741F48DB79EB7409164000C
:1018C00050916500841B950BE817F907B0F4F0936D
:1018D000C101E093C001F901718360830CC0CB01A9
:1018E00032DE7C01009749F0A801BE0110D0CE0184
:1018F000C2DEC70104C0CE0102C080E090E0CDB7D7
:10190000DEB7EEE001CD81E090E0F89419C0FB0174
:10191000DC0102C001900D9241505040D8F708956B
:10192000FB01DC018D91019080190110D9F3990B15
:101930000895FB01DC0101900D920020E1F708956C
:04194000F894FFCF49
:101944000000C40180000000000000022D015A01C3
:101954004B02CA016901BC0151005000580041000A
:0E196400430045004200440048004700520086
:101C000012C02CC02BC02AC029C028C027C026C0A3
:101C100025C024C023C022C021C020C01FC01EC0B8
:101C20001DC01CC01BC011241FBECFE5D4E0DEBF09
:101C3000CDBF10E0A0E6B0E0E4EDFFE102C005900A
:101C40000D92A236B107D9F711E0A2E6B0E001C0CB
:101C50001D92AA36B107E1F74AD0BAC1D1CF5D9B38
:101C6000FECF8CB90895EF92FF920F931F93EE244D
:101C7000FF24870113C00894E11CF11C011D111DF4
:101C800081E8E81684E8F8068EE1080780E0180786
:101C900028F0E0916200F091630009955F9BEBCF23
:101CA0008CB11F910F91FF90EF9008950F931F93A8
:101CB000082F10E002C0D7DF1F5F1017E0F31F915D
:101CC0000F9108951F93182FCEDF803231F484E1F5
:101CD000C6DF812FC4DF80E1C2DF1F910895C3DF1B
:101CE000803221F484E1BBDF80E1B9CF08950F9306
:101CF0001F93CF93DF93000010BC8CE089B988E17B
:101D00008AB986E880BDBD9A1092680120E030E271
:101D100040E050E007C088B3832788BBCA01019721
:101D2000F1F72F5F2031B8F3209368019CDF8033F7
:101D300081F1813399F497DF8032C1F784E18FDF3D
:101D400081E48DDF86E58BDF82E589DF80E287DF56
:101D500089E485DF83E583DF80E530C1803429F4C1
:101D600082DF8638B0F07FDF14C0813471F47BDF0E
:101D7000803811F482E02AC1813811F481E026C153
:101D8000823809F022C182E121C1823421F484E148
:101D90008DDFA5DFCBCF853411F485E0F9CF803519
:101DA000C1F38135B1F38235A1F3853539F45BDFB9
:101DB0008093640058DF80936500EBCF863519F47B
:101DC00084E074DF02C1843609F098C04CDF809350
:101DD000670149DF80936601809169018E7F80935E
:101DE000690141DF853429F4809169018160809324
:101DF000690100E010E007C036DFF801EA59FF4F43
:101E000080830F5F1F4F80916601909167010817D3
:101E1000190790F328DF803209F088CF809169019B
:101E200080FF27C060916601709167012091640076
:101E30003091650080E090E012C0AC01420F531F6A
:101E4000FC01EA59FF4FE081E199FECF5FBB4EBB39
:101E5000EDBB0FB6F894E29AE19A0FBE0196861791
:101E6000970758F3260F371F3093650020936400BF
:101E700043C0F894E199FECF1127E0916400F091FE
:101E80006500EE0FFF1FC6E6D0E0809166019091DD
:101E9000670180FF01C00196103051F422D003E0A9
:101EA00000935700E8951DD001E100935700E89595
:101EB0000990199016D001E000935700E89513950A
:101EC000103258F011270DD005E000935700E89527
:101ED00008D001E100935700E8953296029739F057
:101EE000DBCF0091570001700130D9F30895103015
:101EF00011F00296E7CF112484E160C0843709F025
:101F000050C0B1DE80936701AEDE80936601ABDE28
:101F100090916901853421F49160909369010DC01D
:101F20009E7F909369018091640090916500880F75
:101F3000991F909365008093640095DE803209F0CC
:101F4000F5CE84E18CDE00E010E023C080916901D1
:101F500080FF0BC08091640090916500E199FECFF5
:101F60009FBB8EBBE09A8DB308C081FD07C0E09196
:101F70006400F0916500E4918E2F71DE8091640021
:101F800090916500019690936500809364000F5FC7
:101F90001F4F809166019091670108171907B0F2F1
:101FA0000EC0853779F45FDE803209F0BFCE84E160
:101FB00056DE8EE154DE83E952DE87E050DE80E1BA
:101FC0004EDEB4CE863709F0B1CE80E07BDEAECEF9
:041FD000F894FFCFB3
:021FD40080008B
:0400000300001C00DD
:00000001FF
